{
  "_format": "hh-sol-artifact-1",
  "contractName": "SimpleMedChain",
  "sourceName": "contracts/SimpleMedChain.sol",
  "abi": [
    {
      "inputs": [],
      "stateMutability": "nonpayable",
      "type": "constructor"
    },
    {
      "anonymous": false,
      "inputs": [
        {
          "indexed": true,
          "internalType": "uint256",
          "name": "batchId",
          "type": "uint256"
        },
        {
          "indexed": false,
          "internalType": "string",
          "name": "drugName",
          "type": "string"
        },
        {
          "indexed": false,
          "internalType": "address",
          "name": "manufacturer",
          "type": "address"
        },
        {
          "indexed": false,
          "internalType": "bytes32",
          "name": "merkleRoot",
          "type": "bytes32"
        },
        {
          "indexed": false,
          "internalType": "uint256",
          "name": "quantity",
          "type": "uint256"
        }
      ],
      "name": "DrugBatchCreated",
      "type": "event"
    },
    {
      "anonymous": false,
      "inputs": [
        {
          "indexed": true,
          "internalType": "uint256",
          "name": "batchId",
          "type": "uint256"
        },
        {
          "indexed": true,
          "internalType": "address",
          "name": "from",
          "type": "address"
        },
        {
          "indexed": true,
          "internalType": "address",
          "name": "to",
          "type": "address"
        },
        {
          "indexed": false,
          "internalType": "enum SimpleMedChain.DrugStatus",
          "name": "newStatus",
          "type": "uint8"
        }
      ],
      "name": "DrugTransferred",
      "type": "event"
    },
    {
      "anonymous": false,
      "inputs": [
        {
          "indexed": true,
          "internalType": "uint256",
          "name": "batchId",
          "type": "uint256"
        },
        {
          "indexed": false,
          "internalType": "address",
          "name": "verifier",
          "type": "address"
        },
        {
          "indexed": false,
          "internalType": "bool",
          "name": "isValid",
          "type": "bool"
        }
      ],
      "name": "DrugVerified",
      "type": "event"
    },
    {
      "anonymous": false,
      "inputs": [
        {
          "indexed": true,
          "internalType": "address",
          "name": "hospital",
          "type": "address"
        },
        {
          "indexed": false,
          "internalType": "string",
          "name": "name",
          "type": "string"
        },
        {
          "indexed": false,
          "internalType": "string",
          "name": "location",
          "type": "string"
        }
      ],
      "name": "HospitalRegistered",
      "type": "event"
    },
    {
      "anonymous": false,
      "inputs": [
        {
          "indexed": false,
          "internalType": "address",
          "name": "account",
          "type": "address"
        }
      ],
      "name": "Paused",
      "type": "event"
    },
    {
      "anonymous": false,
      "inputs": [
        {
          "indexed": true,
          "internalType": "bytes32",
          "name": "role",
          "type": "bytes32"
        },
        {
          "indexed": true,
          "internalType": "bytes32",
          "name": "previousAdminRole",
          "type": "bytes32"
        },
        {
          "indexed": true,
          "internalType": "bytes32",
          "name": "newAdminRole",
          "type": "bytes32"
        }
      ],
      "name": "RoleAdminChanged",
      "type": "event"
    },
    {
      "anonymous": false,
      "inputs": [
        {
          "indexed": true,
          "internalType": "bytes32",
          "name": "role",
          "type": "bytes32"
        },
        {
          "indexed": true,
          "internalType": "address",
          "name": "account",
          "type": "address"
        },
        {
          "indexed": true,
          "internalType": "address",
          "name": "sender",
          "type": "address"
        }
      ],
      "name": "RoleGranted",
      "type": "event"
    },
    {
      "anonymous": false,
      "inputs": [
        {
          "indexed": true,
          "internalType": "bytes32",
          "name": "role",
          "type": "bytes32"
        },
        {
          "indexed": true,
          "internalType": "address",
          "name": "account",
          "type": "address"
        },
        {
          "indexed": true,
          "internalType": "address",
          "name": "sender",
          "type": "address"
        }
      ],
      "name": "RoleRevoked",
      "type": "event"
    },
    {
      "anonymous": false,
      "inputs": [
        {
          "indexed": true,
          "internalType": "address",
          "name": "hospital",
          "type": "address"
        },
        {
          "indexed": false,
          "internalType": "uint256",
          "name": "currentStock",
          "type": "uint256"
        },
        {
          "indexed": false,
          "internalType": "uint256",
          "name": "threshold",
          "type": "uint256"
        }
      ],
      "name": "StockThresholdReached",
      "type": "event"
    },
    {
      "anonymous": false,
      "inputs": [
        {
          "indexed": false,
          "internalType": "address",
          "name": "account",
          "type": "address"
        }
      ],
      "name": "Unpaused",
      "type": "event"
    },
    {
      "anonymous": false,
      "inputs": [
        {
          "indexed": true,
          "internalType": "bytes32",
          "name": "drugHash",
          "type": "bytes32"
        },
        {
          "indexed": false,
          "internalType": "string",
          "name": "drugName",
          "type": "string"
        }
      ],
      "name": "WHODrugAdded",
      "type": "event"
    },
    {
      "anonymous": false,
      "inputs": [
        {
          "indexed": true,
          "internalType": "bytes32",
          "name": "drugHash",
          "type": "bytes32"
        },
        {
          "indexed": false,
          "internalType": "string",
          "name": "drugName",
          "type": "string"
        }
      ],
      "name": "WHODrugRemoved",
      "type": "event"
    },
    {
      "inputs": [],
      "name": "ADMIN_ROLE",
      "outputs": [
        {
          "internalType": "bytes32",
          "name": "",
          "type": "bytes32"
        }
      ],
      "stateMutability": "view",
      "type": "function"
    },
    {
      "inputs": [],
      "name": "DEFAULT_ADMIN_ROLE",
      "outputs": [
        {
          "internalType": "bytes32",
          "name": "",
          "type": "bytes32"
        }
      ],
      "stateMutability": "view",
      "type": "function"
    },
    {
      "inputs": [],
      "name": "DISTRIBUTOR_ROLE",
      "outputs": [
        {
          "internalType": "bytes32",
          "name": "",
          "type": "bytes32"
        }
      ],
      "stateMutability": "view",
      "type": "function"
    },
    {
      "inputs": [],
      "name": "HOSPITAL_ROLE",
      "outputs": [
        {
          "internalType": "bytes32",
          "name": "",
          "type": "bytes32"
        }
      ],
      "stateMutability": "view",
      "type": "function"
    },
    {
      "inputs": [],
      "name": "MANUFACTURER_ROLE",
      "outputs": [
        {
          "internalType": "bytes32",
          "name": "",
          "type": "bytes32"
        }
      ],
      "stateMutability": "view",
      "type": "function"
    },
    {
      "inputs": [],
      "name": "PATIENT_ROLE",
      "outputs": [
        {
          "internalType": "bytes32",
          "name": "",
          "type": "bytes32"
        }
      ],
      "stateMutability": "view",
      "type": "function"
    },
    {
      "inputs": [
        {
          "internalType": "bytes32",
          "name": "_drugHash",
          "type": "bytes32"
        }
      ],
      "name": "addWHOApprovedDrug",
      "outputs": [],
      "stateMutability": "nonpayable",
      "type": "function"
    },
    {
      "inputs": [
        {
          "internalType": "string",
          "name": "_drugName",
          "type": "string"
        }
      ],
      "name": "addWHOApprovedDrugWithName",
      "outputs": [],
      "stateMutability": "nonpayable",
      "type": "function"
    },
    {
      "inputs": [
        {
          "internalType": "string",
          "name": "_drugName",
          "type": "string"
        },
        {
          "internalType": "string",
          "name": "_drugCode",
          "type": "string"
        },
        {
          "internalType": "string",
          "name": "_regulatoryApproval",
          "type": "string"
        },
        {
          "internalType": "bytes32",
          "name": "_merkleRoot",
          "type": "bytes32"
        },
        {
          "internalType": "string",
          "name": "_ipfsHash",
          "type": "string"
        },
        {
          "internalType": "uint256",
          "name": "_quantity",
          "type": "uint256"
        },
        {
          "internalType": "uint256",
          "name": "_expiryDate",
          "type": "uint256"
        }
      ],
      "name": "createDrugBatch",
      "outputs": [
        {
          "internalType": "uint256",
          "name": "",
          "type": "uint256"
        }
      ],
      "stateMutability": "nonpayable",
      "type": "function"
    },
    {
      "inputs": [
        {
          "internalType": "uint256",
          "name": "",
          "type": "uint256"
        }
      ],
      "name": "drugBatches",
      "outputs": [
        {
          "internalType": "uint256",
          "name": "id",
          "type": "uint256"
        },
        {
          "internalType": "string",
          "name": "drugName",
          "type": "string"
        },
        {
          "internalType": "address",
          "name": "manufacturer",
          "type": "address"
        },
        {
          "internalType": "uint256",
          "name": "quantity",
          "type": "uint256"
        },
        {
          "internalType": "uint256",
          "name": "manufactureDate",
          "type": "uint256"
        },
        {
          "internalType": "uint256",
          "name": "expiryDate",
          "type": "uint256"
        },
        {
          "internalType": "bytes32",
          "name": "merkleRoot",
          "type": "bytes32"
        },
        {
          "internalType": "enum SimpleMedChain.DrugStatus",
          "name": "status",
          "type": "uint8"
        },
        {
          "internalType": "address",
          "name": "currentHolder",
          "type": "address"
        },
        {
          "internalType": "bool",
          "name": "isVerified",
          "type": "bool"
        }
      ],
      "stateMutability": "view",
      "type": "function"
    },
    {
      "inputs": [],
      "name": "emergencyPause",
      "outputs": [],
      "stateMutability": "nonpayable",
      "type": "function"
    },
    {
      "inputs": [],
      "name": "emergencyUnpause",
      "outputs": [],
      "stateMutability": "nonpayable",
      "type": "function"
    },
    {
      "inputs": [
        {
          "internalType": "uint256",
          "name": "",
          "type": "uint256"
        }
      ],
      "name": "expiredReports",
      "outputs": [
        {
          "internalType": "uint256",
          "name": "batchId",
          "type": "uint256"
        },
        {
          "internalType": "address",
          "name": "reportedBy",
          "type": "address"
        },
        {
          "internalType": "uint256",
          "name": "reportDate",
          "type": "uint256"
        },
        {
          "internalType": "string",
          "name": "reason",
          "type": "string"
        },
        {
          "internalType": "bool",
          "name": "isVerified",
          "type": "bool"
        }
      ],
      "stateMutability": "view",
      "type": "function"
    },
    {
      "inputs": [],
      "name": "getCurrentBatchId",
      "outputs": [
        {
          "internalType": "uint256",
          "name": "",
          "type": "uint256"
        }
      ],
      "stateMutability": "view",
      "type": "function"
    },
    {
      "inputs": [
        {
          "internalType": "uint256",
          "name": "_batchId",
          "type": "uint256"
        }
      ],
      "name": "getDrugBatch",
      "outputs": [
        {
          "components": [
            {
              "internalType": "uint256",
              "name": "id",
              "type": "uint256"
            },
            {
              "internalType": "string",
              "name": "drugName",
              "type": "string"
            },
            {
              "internalType": "address",
              "name": "manufacturer",
              "type": "address"
            },
            {
              "internalType": "uint256",
              "name": "quantity",
              "type": "uint256"
            },
            {
              "internalType": "uint256",
              "name": "manufactureDate",
              "type": "uint256"
            },
            {
              "internalType": "uint256",
              "name": "expiryDate",
              "type": "uint256"
            },
            {
              "internalType": "bytes32",
              "name": "merkleRoot",
              "type": "bytes32"
            },
            {
              "internalType": "enum SimpleMedChain.DrugStatus",
              "name": "status",
              "type": "uint8"
            },
            {
              "internalType": "address",
              "name": "currentHolder",
              "type": "address"
            },
            {
              "internalType": "bool",
              "name": "isVerified",
              "type": "bool"
            }
          ],
          "internalType": "struct SimpleMedChain.DrugBatch",
          "name": "",
          "type": "tuple"
        }
      ],
      "stateMutability": "view",
      "type": "function"
    },
    {
      "inputs": [
        {
          "internalType": "address",
          "name": "_hospital",
          "type": "address"
        }
      ],
      "name": "getHospital",
      "outputs": [
        {
          "components": [
            {
              "internalType": "address",
              "name": "hospitalAddress",
              "type": "address"
            },
            {
              "internalType": "string",
              "name": "name",
              "type": "string"
            },
            {
              "internalType": "string",
              "name": "location",
              "type": "string"
            },
            {
              "internalType": "enum SimpleMedChain.HospitalType",
              "name": "hospitalType",
              "type": "uint8"
            },
            {
              "internalType": "bool",
              "name": "isRegistered",
              "type": "bool"
            },
            {
              "internalType": "uint256",
              "name": "currentStock",
              "type": "uint256"
            },
            {
              "internalType": "uint256",
              "name": "threshold",
              "type": "uint256"
            }
          ],
          "internalType": "struct SimpleMedChain.Hospital",
          "name": "",
          "type": "tuple"
        }
      ],
      "stateMutability": "view",
      "type": "function"
    },
    {
      "inputs": [
        {
          "internalType": "bytes32",
          "name": "role",
          "type": "bytes32"
        }
      ],
      "name": "getRoleAdmin",
      "outputs": [
        {
          "internalType": "bytes32",
          "name": "",
          "type": "bytes32"
        }
      ],
      "stateMutability": "view",
      "type": "function"
    },
    {
      "inputs": [],
      "name": "getTotalBatches",
      "outputs": [
        {
          "internalType": "uint256",
          "name": "",
          "type": "uint256"
        }
      ],
      "stateMutability": "view",
      "type": "function"
    },
    {
      "inputs": [
        {
          "internalType": "address",
          "name": "account",
          "type": "address"
        }
      ],
      "name": "grantDistributorRole",
      "outputs": [],
      "stateMutability": "nonpayable",
      "type": "function"
    },
    {
      "inputs": [
        {
          "internalType": "address",
          "name": "account",
          "type": "address"
        }
      ],
      "name": "grantHospitalRole",
      "outputs": [],
      "stateMutability": "nonpayable",
      "type": "function"
    },
    {
      "inputs": [
        {
          "internalType": "address",
          "name": "account",
          "type": "address"
        }
      ],
      "name": "grantManufacturerRole",
      "outputs": [],
      "stateMutability": "nonpayable",
      "type": "function"
    },
    {
      "inputs": [
        {
          "internalType": "address",
          "name": "account",
          "type": "address"
        }
      ],
      "name": "grantPatientRole",
      "outputs": [],
      "stateMutability": "nonpayable",
      "type": "function"
    },
    {
      "inputs": [
        {
          "internalType": "bytes32",
          "name": "role",
          "type": "bytes32"
        },
        {
          "internalType": "address",
          "name": "account",
          "type": "address"
        }
      ],
      "name": "grantRole",
      "outputs": [],
      "stateMutability": "nonpayable",
      "type": "function"
    },
    {
      "inputs": [
        {
          "internalType": "bytes32",
          "name": "role",
          "type": "bytes32"
        },
        {
          "internalType": "address",
          "name": "account",
          "type": "address"
        }
      ],
      "name": "hasRole",
      "outputs": [
        {
          "internalType": "bool",
          "name": "",
          "type": "bool"
        }
      ],
      "stateMutability": "view",
      "type": "function"
    },
    {
      "inputs": [
        {
          "internalType": "address",
          "name": "",
          "type": "address"
        }
      ],
      "name": "hospitals",
      "outputs": [
        {
          "internalType": "address",
          "name": "hospitalAddress",
          "type": "address"
        },
        {
          "internalType": "string",
          "name": "name",
          "type": "string"
        },
        {
          "internalType": "string",
          "name": "location",
          "type": "string"
        },
        {
          "internalType": "enum SimpleMedChain.HospitalType",
          "name": "hospitalType",
          "type": "uint8"
        },
        {
          "internalType": "bool",
          "name": "isRegistered",
          "type": "bool"
        },
        {
          "internalType": "uint256",
          "name": "currentStock",
          "type": "uint256"
        },
        {
          "internalType": "uint256",
          "name": "threshold",
          "type": "uint256"
        }
      ],
      "stateMutability": "view",
      "type": "function"
    },
    {
      "inputs": [
        {
          "internalType": "bytes32",
          "name": "_drugHash",
          "type": "bytes32"
        }
      ],
      "name": "isWHOApproved",
      "outputs": [
        {
          "internalType": "bool",
          "name": "",
          "type": "bool"
        }
      ],
      "stateMutability": "view",
      "type": "function"
    },
    {
      "inputs": [
        {
          "internalType": "string",
          "name": "_drugName",
          "type": "string"
        }
      ],
      "name": "isWHOApprovedByName",
      "outputs": [
        {
          "internalType": "bool",
          "name": "",
          "type": "bool"
        }
      ],
      "stateMutability": "view",
      "type": "function"
    },
    {
      "inputs": [],
      "name": "nextBatchId",
      "outputs": [
        {
          "internalType": "uint256",
          "name": "",
          "type": "uint256"
        }
      ],
      "stateMutability": "view",
      "type": "function"
    },
    {
      "inputs": [],
      "name": "nextReportId",
      "outputs": [
        {
          "internalType": "uint256",
          "name": "",
          "type": "uint256"
        }
      ],
      "stateMutability": "view",
      "type": "function"
    },
    {
      "inputs": [
        {
          "internalType": "address",
          "name": "",
          "type": "address"
        },
        {
          "internalType": "uint256",
          "name": "",
          "type": "uint256"
        }
      ],
      "name": "patientBatches",
      "outputs": [
        {
          "internalType": "uint256",
          "name": "",
          "type": "uint256"
        }
      ],
      "stateMutability": "view",
      "type": "function"
    },
    {
      "inputs": [],
      "name": "paused",
      "outputs": [
        {
          "internalType": "bool",
          "name": "",
          "type": "bool"
        }
      ],
      "stateMutability": "view",
      "type": "function"
    },
    {
      "inputs": [
        {
          "internalType": "address",
          "name": "_hospitalAddress",
          "type": "address"
        },
        {
          "internalType": "string",
          "name": "_name",
          "type": "string"
        },
        {
          "internalType": "string",
          "name": "_registrationNumber",
          "type": "string"
        },
        {
          "internalType": "enum SimpleMedChain.HospitalType",
          "name": "_hospitalType",
          "type": "uint8"
        },
        {
          "internalType": "uint256",
          "name": "_stockThreshold",
          "type": "uint256"
        },
        {
          "internalType": "uint256",
          "name": "_capacity",
          "type": "uint256"
        }
      ],
      "name": "registerHospital",
      "outputs": [],
      "stateMutability": "nonpayable",
      "type": "function"
    },
    {
      "inputs": [
        {
          "internalType": "bytes32",
          "name": "_drugHash",
          "type": "bytes32"
        }
      ],
      "name": "removeWHOApprovedDrug",
      "outputs": [],
      "stateMutability": "nonpayable",
      "type": "function"
    },
    {
      "inputs": [
        {
          "internalType": "bytes32",
          "name": "role",
          "type": "bytes32"
        },
        {
          "internalType": "address",
          "name": "account",
          "type": "address"
        }
      ],
      "name": "renounceRole",
      "outputs": [],
      "stateMutability": "nonpayable",
      "type": "function"
    },
    {
      "inputs": [
        {
          "internalType": "bytes32",
          "name": "role",
          "type": "bytes32"
        },
        {
          "internalType": "address",
          "name": "account",
          "type": "address"
        }
      ],
      "name": "revokeRole",
      "outputs": [],
      "stateMutability": "nonpayable",
      "type": "function"
    },
    {
      "inputs": [
        {
          "internalType": "bytes4",
          "name": "interfaceId",
          "type": "bytes4"
        }
      ],
      "name": "supportsInterface",
      "outputs": [
        {
          "internalType": "bool",
          "name": "",
          "type": "bool"
        }
      ],
      "stateMutability": "view",
      "type": "function"
    },
    {
      "inputs": [
        {
          "internalType": "uint256",
          "name": "_batchId",
          "type": "uint256"
        },
        {
          "internalType": "address",
          "name": "_to",
          "type": "address"
        },
        {
          "internalType": "enum SimpleMedChain.DrugStatus",
          "name": "_newStatus",
          "type": "uint8"
        }
      ],
      "name": "transferDrugBatch",
      "outputs": [],
      "stateMutability": "nonpayable",
      "type": "function"
    },
    {
      "inputs": [
        {
          "internalType": "uint256",
          "name": "_batchId",
          "type": "uint256"
        }
      ],
      "name": "verifyDrugBatch",
      "outputs": [
        {
          "internalType": "bool",
          "name": "",
          "type": "bool"
        }
      ],
      "stateMutability": "nonpayable",
      "type": "function"
    },
    {
      "inputs": [
        {
          "internalType": "bytes32",
          "name": "",
          "type": "bytes32"
        }
      ],
      "name": "whoApprovedDrugs",
      "outputs": [
        {
          "internalType": "bool",
          "name": "",
          "type": "bool"
        }
      ],
      "stateMutability": "view",
      "type": "function"
    }
  ],
  "bytecode": "0x6080604052346200002657620000146200007a565b604051612d29620002698239612d2990f35b600080fd5b90600019905b9181191691161790565b6200004b6200004b6200004b9290565b90565b90620000626200004b6200006a926200003b565b82546200002b565b9055565b6200004b60006200003b565b620000846200010e565b6200009f6001620000978160086200004e565b60096200004e565b620000e1620000ad6200006e565b620000ba338092620001a6565b7fa49807205ce4d355092ef5a8a18f56e8913cf4a201fbe287825b095693c21775620001a6565b565b9060ff9062000031565b151590565b90620001066200004b6200006a92620000ed565b8254620000e3565b6200011862000132565b620000e160006002620000f2565b6200004b60016200003b565b620000e16200014062000126565b60016200004e565b9062000154906200004b565b600052602052604060002090565b6200004b9062000178906001600160a01b031682565b6001600160a01b031690565b6200004b9062000162565b6200004b9062000184565b9062000154906200018f565b90620001bb620001b782846200024a565b1590565b620001c4575050565b620001ea6001620001e4836000620001dd878262000148565b016200019a565b620000f2565b33906200022762000220620002207f2f8788117e7eff1d82e926ec794901d17c78024a50270940304540a733656f0d956200004b565b926200018f565b926200023260405190565b600090a4565b60ff1690565b6200004b905462000238565b6200004b916200026291620001dd6000918262000148565b6200023e56fe6080604052600436101561001257600080fd5b60003560e01c806301ffc9a714610282578063021dbbc31461027d5780630587c1191461027857806309c3bdb314610273578063207490681461026e578063248a9ca3146102695780632f2ff15d1461026457806336568abe1461025f57806346ee7d981461025a5780634a4e3bd51461025557806351858e271461025057806355c4281e1461024b5780635c975abb146102465780636e79bbf61461024157806375b238fc1461023c5780637ee756f2146102375780637f2df8b0146102325780638462a7f81461022d5780638bba2a0a146102285780638d55863b1461022357806391d148541461021e578063965288b01461021957806399be8c8214610214578063a217fddf1461020f578063ac5cb97d1461020a578063b6e202d714610205578063c177d07714610200578063c49b09b5146101fb578063d547741f146101f6578063dfe6bbe6146101f1578063e181143c146101ec578063e561dddc146101e7578063e720ac8e146101e2578063eed039b2146101dd578063f093cf80146101d8578063f0bd87cc146101d3578063f276c323146101ce578063f6ba6678146101c95763fdbf6ee50361028757611257565b61123c565b6111e9565b611118565b6110b8565b610fbd565b610fa2565b610f87565b610f6b565b610e8f565b610e41565b610e1a565b610d2c565b610ba5565b610af5565b610aae565b610a84565b610a69565b610a21565b6109ff565b610939565b61091e565b6108fa565b6108e2565b6108c7565b610880565b610843565b61082b565b6107ff565b6107e7565b6107c3565b610763565b61074a565b6106e6565b6106ce565b61069d565b61040c565b6103ef565b6102d3565b600080fd5b6001600160e01b03191690565b6102a28161028c565b0361028757565b905035906102b682610299565b565b90602082820312610287576102cc916102a9565b90565b9052565b34610287576103006102ee6102e93660046102b8565b611272565b60405191829182901515815260200190565b0390f35b634e487b7160e01b600052604160045260246000fd5b90601f01601f191681019081106001600160401b0382111761033b57604052565b610304565b906102b661034d60405190565b928361031a565b6001600160401b03811161033b57602090601f01601f19160190565b0190565b90826000939282370152565b9092919261039561039082610354565b610340565b93818552602085019082840111610287576102b692610374565b9080601f83011215610287578160206102cc93359101610380565b906020828203126102875781356001600160401b038111610287576102cc92016103af565b34610287576104076104023660046103ca565b61265b565b604051005b34610287576103006102ee6104223660046103ca565b6126cd565b806102a2565b905035906102b682610427565b90602082820312610287576102cc9161042d565b6102cc6102cc6102cc9290565b906104659061044e565b600052602052604060002090565b6102cc9081565b6102cc9054610473565b6001600160a01b031690565b6102cc90610484565b610484565b6102cc9054610490565b634e487b7160e01b600052602260045260246000fd5b90600160028304921680156104de575b60208310146104d957565b6104a8565b91607f16916104ce565b805460009392916105056104fb836104be565b8085529360200190565b9160018116908115610557575060011461051e57505050565b6105319192939450600052602060002090565b916000925b8184106105435750500190565b805484840152602090930192600101610536565b92949550505060ff1916825215156020020190565b906102cc916104e8565b906102b66105909261058760405190565b9384809261056c565b038361031a565b6102cc905b60ff1690565b6102cc9054610597565b6105b790600661045b565b6105c08161047a565b916105cd6001830161049e565b916105da6002820161047a565b916102cc60046105ec60038501610576565b93016105a2565b6102cf90610490565b60005b83811061060f5750506000910152565b81810151838201526020016105ff565b61064061064960209361037093610634815190565b80835293849260200190565b958691016105fc565b601f01601f191690565b6102b6946106878298979561068060809661067661069497600060a08901980152565b60208c01906105f3565b60408a0152565b878203606089015261061f565b94019015159052565b34610287576103006106b86106b336600461043a565b6105ac565b916106c595939560405190565b95869586610653565b34610287576104076106e136600461043a565b6125ce565b34610287576103006107016106fc36600461043a565b6112c0565b6040519182918290815260200190565b6102a281610490565b905035906102b682610711565b9190604083820312610287576102cc90610741818561042d565b9360200161071a565b346102875761040761075d366004610727565b906112ff565b3461028757610407610776366004610727565b906114be565b6005111561028757565b905035906102b68261077c565b9091606082840312610287576102cc6107ac848461042d565b936107ba816020860161071a565b93604001610786565b34610287576104076107d6366004610793565b91612378565b600091031261028757565b34610287576107f73660046107dc565b610407612c2a565b346102875761080f3660046107dc565b610407612b46565b90602082820312610287576102cc9161071a565b346102875761040761083e366004610817565b6118fe565b34610287576108533660046107dc565b6103006102ee6115e1565b6102cc916008021c81565b906102cc915461085e565b6102cc60006009610869565b34610287576108903660046107dc565b610300610701610874565b7fa49807205ce4d355092ef5a8a18f56e8913cf4a201fbe287825b095693c2177590565b6102cc61089b565b34610287576108d73660046107dc565b6103006107016108bf565b34610287576104076108f5366004610817565b61194c565b346102875761040761090d366004610817565b611973565b6102cc60006008610869565b346102875761092e3660046107dc565b610300610701610912565b346102875761040761094c366004610817565b611925565b60e0818303126102875780356001600160401b03811161028757826109779183016103af565b9260208201356001600160401b03811161028757836109979184016103af565b9260408301356001600160401b03811161028757816109b79185016103af565b926109c5826060830161042d565b9260808201356001600160401b038111610287576109e8846102cc9285016103af565b936109f68160a0860161042d565b9360c00161042d565b3461028757610300610701610a15366004610951565b959490949391936120cf565b34610287576103006102ee610a37366004610727565b906112a1565b7feefb95e842a3287179d933b4460be539a1d5af11aa8b325bb45c5c8dc92de4ed90565b6102cc610a3d565b3461028757610a793660046107dc565b610300610701610a61565b3461028757610407610a9736600461043a565b6126ad565b6102cc600061044e565b6102cc610a9c565b3461028757610abe3660046107dc565b610300610701610aa6565b7f72606200fac42b7dc86b75901d61ecfab2a4a1a6eded478b97a428094891abed90565b6102cc610ac9565b3461028757610b053660046107dc565b610300610701610aed565b6002111561028757565b905035906102b682610b10565b909160c08284031261028757610b3d838361071a565b9260208301356001600160401b0381116102875781610b5d9185016103af565b9260408101356001600160401b0381116102875782610b7d9183016103af565b926102cc610b8e8460608501610b1a565b93610b9c816080860161042d565b9360a00161042d565b3461028757610407610bb8366004610b27565b9493909392919261256e565b6102cc9060081c610484565b6102cc9054610bc4565b6102cc9060a81c61059c565b6102cc9054610bda565b610bfb90600361045b565b90610c058261047a565b91610c1260018201610576565b91610c1f6002830161049e565b91610c2c6003820161047a565b91610c396004830161047a565b91610c466005820161047a565b91610c536006830161047a565b91610c60600782016105a2565b916102cc6007610c71818501610bd0565b9301610be6565b634e487b7160e01b600052602160045260246000fd5b60051115610c9857565b610c78565b906102b682610c8e565b6102cc90610c9d565b6102cf90610ca7565b908152919998979196919591949193919290610140880188810360208a0152610ce19161061f565b9960408801610cef916105f3565b6060870152608086015260a085015260c084015260e08301610d1091610cb0565b6101008201610d1e916105f3565b610120016102b69115159052565b3461028757610300610d47610d4236600461043a565b610bf0565b96610d5d9a989a96919695929594939460405190565b9a8b9a8b610cb9565b60021115610c9857565b906102b682610d66565b6102cc90610d70565b6102cf90610d7a565b906102cc9060c080610dd4610dc260e08501610db0600089015160008801906105f3565b6020880151868203602088015261061f565b6040870151858203604087015261061f565b94610de760608201516060860190610d83565b608081810151151590850152610e0260a082015160a0860152565b0151910152565b60208082526102cc92910190610d8c565b3461028757610300610e35610e30366004610817565b612ac0565b60405191829182610e09565b3461028757610407610e54366004610727565b90611450565b90610465565b6102cc916008021c61059c565b906102cc9154610e60565b6102cc90610e8a600591600092610e5a565b610e6d565b34610287576103006102ee610ea536600461043a565b610e78565b9190604083820312610287576102cc90610ec4818561071a565b9360200161042d565b6104996102cc6102cc92610484565b6102cc90610ecd565b6102cc90610edc565b9061046590610ee5565b634e487b7160e01b600052603260045260246000fd5b8054821015610f3157610f28600191600052602060002090565b91020190600090565b610ef8565b610f44600791600092610eee565b90610f4d825490565b831015610f6857506102cc91610f6291610f0e565b90610869565b80fd5b3461028757610300610701610f81366004610eaa565b90610f36565b3461028757610f973660046107dc565b610300610701612b10565b3461028757610fb23660046107dc565b610300610701612af9565b34610287576103006102ee610fd336600461043a565b61280e565b6102cc9060081c61059c565b6102cc9054610fd8565b610ff9906004610eee565b6110028161049e565b9161100f60018301610576565b9161101c60028201610576565b91611029600383016105a2565b9161103660038201610fe4565b916102cc60056110486004850161047a565b930161047a565b9260c0949897956110a46110996110ad9361108b6102b69b966110b49861107e60e08c019260008d01906105f3565b8a820360208c015261061f565b9088820360408a015261061f565b9a6060870190610d83565b15156080850152565b60a0830152565b0152565b34610287576103006110d36110ce366004610817565b610fee565b936110e397959793919360405190565b9788978861104f565b7ffbd454f36a7e1a388bd6fc3ab10d434aa4578f811acbbcf33afb1c697486313c90565b6102cc6110ec565b34610287576111283660046107dc565b610300610701611110565b80518252906102cc906101208061115a61014084016020870151858203602087015261061f565b9461116d604082015160408601906105f3565b61117c60608201516060860152565b61118b60808201516080860152565b61119a60a082015160a0860152565b6111a960c082015160c0860152565b6111bb60e082015160e0860190610cb0565b6111cf6101008201516101008601906105f3565b01511515910152565b60208082526102cc92910190611133565b34610287576103006112046111ff36600461043a565b6129af565b604051918291826111d8565b7fc8f5b4140cca307cd927e59cbeea8291bffeee228fc677f0fa059aef7b4dd8d590565b6102cc611210565b346102875761124c3660046107dc565b610300610701611234565b34610287576103006102ee61126d36600461043a565b6126b6565b611282637965db0b60e01b61028c565b61128b8261028c565b14908115611297575090565b6102cc9150611877565b6102cc916112bb916112b560009182610e5a565b01610eee565b6105a2565b60016112d96102cc926112d1600090565b506000610e5a565b0161047a565b906102b6916112f56112f0826112c0565b611309565b906102b691611512565b906102b6916112df565b6102b69033906113a9565b6102cc9061044e565b61044e565b61037061133a92602092611334815190565b94859290565b938491016105fc565b61137b6102cc93926113756113759376020b1b1b2b9b9a1b7b73a3937b61d1030b1b1b7bab73a1604d1b815260170190565b90611322565b7001034b99036b4b9b9b4b733903937b6329607d1b815260110190565b60208082526102cc9291019061061f565b906113bb6113b782846112a1565b1590565b6113c3575050565b611431916102cc6113df6113d96114199461184a565b92611314565b6113f46020916113ee8361044e565b906116fe565b9261140d61140160405190565b94859384019283611343565b9081038252038261031a565b60405162461bcd60e51b815291829160048301611398565b0390fd5b906102b6916114466112f0826112c0565b906102b69161158a565b906102b691611435565b1561146157565b60405162461bcd60e51b815260206004820152602f60248201527f416363657373436f6e74726f6c3a2063616e206f6e6c792072656e6f756e636560448201526e103937b632b9903337b91039b2b63360891b6064820152608490fd5b6102b691906114e36114d433610490565b610490565b6114dd84610490565b1461145a565b61158a565b9060ff905b9181191691161790565b906115076102cc61150e92151590565b82546114e8565b9055565b906115206113b782846112a1565b611528575050565b611542600161153d8360006112b58782610e5a565b6114f7565b33906115786115726115727f2f8788117e7eff1d82e926ec794901d17c78024a50270940304540a733656f0d9590565b92610ee5565b9261158260405190565b80805b0390a4565b9061159581836112a1565b61159d575050565b6115b1600061153d83826112b58782610e5a565b33906115786115726115727ff6391f5c32d9c69d2a47ea670b442974b53935d1edc7fd64eb21e047a839171b9590565b6102cc60026105a2565b634e487b7160e01b600052601160045260246000fd5b8181029291811591840414171561161457565b6115eb565b9190820180921161161457565b9061163361039083610354565b918252565b369037565b906102b661165361164d84611626565b93610354565b601f190160208401611638565b90611669825190565b811015610f31570160200190565b8015611614576000190190565b61059c6102cc6102cc9290565b6102cc906116a96116a56102cc9460ff1690565b9190565b901c90565b156116b557565b60405162461bcd60e51b815280611431600482016020808252818101527f537472696e67733a20686578206c656e67746820696e73756666696369656e74604082015260600190565b919060029261172f61172a61171b846117168861044e565b611601565b6117248761044e565b90611619565b61163d565b9160009060306117476117418461044e565b86611660565b5361177f611776600f60fb1b926117166001998a95871a61177061176a8861044e565b8b611660565b5361044e565b6117248361044e565b905b6117a3575b506102cc9394509061179d6116a56102cc9361044e565b146116ae565b916117ad8661044e565b83111561181b576f181899199a1a9b1b9c1cb0b131b232b360811b6117d2600f61044e565b8216906010821015610f315787926117f261180f92611815941a60f81b90565b851a6117fe8789611660565b536118096004611684565b90611691565b93611677565b90611781565b91611786565b6102cc6102cc6102cc92610484565b6102cc6014611684565b6102cc6102cc6102cc9260ff1690565b6118676118626102cc9261185c606090565b50610edc565b611821565b6113ee611872611830565b61183a565b61189061188a6301ffc9a760e01b61028c565b9161028c565b1490565b1561189b57565b60405162461bcd60e51b815260206004820152600c60248201526b2737ba1030b71030b236b4b760a11b6044820152606490fd5b6102b6906118ed6118e86118e161089b565b33906112a1565b611894565b6102b6906118f9610a3d565b611512565b6102b6906118cf565b6102b6906119196118e86118e161089b565b6102b6906118f96110ec565b6102b690611907565b6102b6906119406118e86118e161089b565b6102b6906118f9611210565b6102b69061192e565b6102b6906119676118e86118e161089b565b6102b6906118f9610ac9565b6102b690611955565b1561198357565b60405162461bcd60e51b81526020600482015260126024820152712737ba10309036b0b73ab330b1ba3ab932b960711b6044820152606490fd5b906102cc979695949392916119db6119d66118e1610a3d565b61197c565b906119f3979695949392916119ee612136565b611f6b565b906102b6612168565b15611a0357565b60405162461bcd60e51b815260206004820152601960248201527844727567206e616d652063616e6e6f7420626520656d70747960381b6044820152606490fd5b15611a4b57565b60405162461bcd60e51b81526020600482015260196024820152784472756720636f64652063616e6e6f7420626520656d70747960381b6044820152606490fd5b15611a9357565b60405162461bcd60e51b815260206004820152601c60248201527b149959dd5b185d1bdc9e48185c1c1c9bdd985b081c995c5d5a5c995960221b6044820152606490fd5b15611ade57565b60405162461bcd60e51b81526020600482015260196024820152784950465320686173682063616e6e6f7420626520656d70747960381b6044820152606490fd5b15611b2657565b60405162461bcd60e51b815260206004820152601f60248201527f5175616e74697479206d7573742062652067726561746572207468616e2030006044820152606490fd5b15611b7257565b60405162461bcd60e51b815260206004820152602160248201527f4578706972792064617465206d75737420626520696e207468652066757475726044820152606560f81b6064820152608490fd5b60001981146116145760010190565b90600019906114ed565b90611bea6102cc61150e9261044e565b8254611bd0565b6102cc610140610340565b906102cf90610490565b906102cf90610c9d565b9160001960089290920291821b911b6114ed565b9190611c356102cc61150e9361044e565b908354611c10565b6102b691600091611c24565b818110611c54575050565b80611c626000600193611c3d565b01611c49565b9190601f8111611c7757505050565b611c896102b693600052602060002090565b906020601f840181900483019310611cab575b6020601f909101040190611c49565b9091508190611c9c565b9060001960089091021c191690565b81611cce91611cb5565b906002021790565b90611cdf815190565b906001600160401b03821161033b57611d0282611cfc85546104be565b85611c68565b602090601f8311600114611d305761150e929160009183611d25575b5050611cc4565b015190503880611d1e565b601f19831691611d4585600052602060002090565b9260005b818110611d8457509160029391856001969410611d6a575b50505002019055565b611d7a910151601f841690611cb5565b9055388080611d61565b91936020600181928787015181550195019201611d49565b906102b691611cd6565b6102cc9051610490565b906001600160a01b03906114ed565b90611dcf6102cc61150e92610ee5565b8254611db0565b90611bea6102cc61150e9290565b6102cc9051610c9d565b906115076102cc61150e92610ca7565b90610100600160a81b039060081b6114ed565b90611e216102cc61150e92610ee5565b8254611dfe565b9060ff60a81b9060a81b6114ed565b90611e476102cc61150e92151590565b8254611e28565b6102b69190611f239061012090600790611e7081611e6a875190565b90611bda565b611e8860018201611e82602088015190565b90611d9c565b611ea160028201611e9b60408801611da6565b90611dbf565b611eb360038201611e6a606088015190565b611ec560048201611e6a608088015190565b611ed760058201611e6a60a088015190565b611eef60068201611ee960c088015190565b90611dd6565b0192611f06611f0060e08301611de4565b85611dee565b611f1c611f166101008301611da6565b85611e11565b0151151590565b90611e37565b906102b691611e4e565b6110b46102b694611f64611f59606095999896996080860190868203600088015261061f565b9860208501906105f3565b6040830152565b50909590939091845196600097611f818961044e565b10611f8b906119fc565b51611f958861044e565b10611f9f90611a44565b51611fa98761044e565b10611fb390611a8c565b51611fbd8661044e565b10611fc790611ad7565b611fd08561044e565b8411611fdb90611b1f565b42611fe7818311611b6b565b611ff1600861047a565b95611ffb87611bc1565b612006906008611bda565b3392612010611bf1565b9261201b8984860152565b6020840187905261202f8560408601611bfc565b61203a886060860152565b608084015260a083015261204f8460c0840152565b61205c8160e08401611c06565b61206a836101008401611bfc565b151561012082015261207d86600361045b565b9061208791611f29565b7fe81d190ae43a7eaaf3db1d1ad7e4d9d84b8c08c3ef7c78d479e556efb4802fc8926120b28661044e565b946120bc60405190565b9384936120c99385611f33565b0390a290565b6102cc9695949392919060006119bd565b6102cc600261044e565b156120f157565b60405162461bcd60e51b815260206004820152601f60248201527f5265656e7472616e637947756172643a207265656e7472616e742063616c6c006044820152606490fd5b6102b6612143600161047a565b61215761214e6120e0565b918214156120ea565b6001611bda565b6102cc600161044e565b6102b661215761215e565b1561217a57565b60405162461bcd60e51b815260206004820152601060248201526f125b9d985b1a590818985d18da08125160821b6044820152606490fd5b906102b692916121c2600061044e565b8111806121d8575b6121d390612173565b6121f2565b506121d36121e96102cc600861047a565b821090506121ca565b906122059291612200612136565b6122c0565b6102b6612168565b1561221457565b60405162461bcd60e51b81526020600482015260166024820152752737ba103a34329031bab93932b73a103437b63232b960511b6044820152606490fd5b6104996102cc6102cc9290565b6102cc90612252565b1561226f57565b60405162461bcd60e51b8152602060048201526019602482015278496e76616c696420726563697069656e74206164647265737360381b6044820152606490fd5b6020810192916102b69190610cb0565b60076122d06102cc83600361045b565b019061232c846122df84610bd0565b936122fd33956122f76122f188610490565b91610490565b1461220d565b61231d61230d6114cf600061225f565b61231688610490565b1415612268565b6123278682611e11565b611dee565b61158561236561235f61235f7f1183a7beb644d5e5d07752e6223cf93b80b08a9201f60c52aaa3d23aa32252c19461044e565b94610ee5565b9461236f60405190565b918291826122b0565b906102b692916121b2565b906102b6959493929161239a6118e86118e161089b565b6124a2565b6102cc60e0610340565b906102cf90610d70565b6102cc9051610d70565b906115076102cc61150e92610d7a565b9061ff009060081b6114ed565b906123ea6102cc61150e92151590565b82546123cd565b6102b69190611e6a9060c09060059061240d81611e9b87611da6565b61241f60018201611e82602088015190565b61243160028201611e82604088015190565b61245a6003820161244d612447606089016123b3565b826123bd565b60808701511515906123da565b61246c60048201611e6a60a088015190565b0192015190565b906102b6916123f1565b60408082526102cc9391926124949184019061061f565b91602081840391015261061f565b9381955061250d906125066124ff8761131d6124db966124f661251d999a6124e260019360009b8c976124d361239f565b9d8e01611bfc565b60208c0152565b6124ed8c60408c0152565b60608a016123a9565b15156080880152565b60a0850152565b60c0830152565b612518846004610eee565b612473565b612529826118f9611210565b6125537f628ba2fd5877ba0e6d4fb27dcc1d0fe28675ed8d2624e5cb3accda5f4c22500492610ee5565b9261256961256060405190565b9283928361247d565b0390a2565b906102b69594939291612383565b6102b69061258e6118e86118e161089b565b61259e600161153d836005610e5a565b600080516020612cd4833981519152905b906125b960405190565b60208082526000908201528060408101612569565b6102b69061257c565b6102b6906125e96118e86118e161089b565b6125f7565b6102cc91611322565b60405161260c816020810161140d85826125ee565b61261e612617825190565b9160200190565b2061262f600161153d836005610e5a565b612569612648600080516020612cd48339815191529290565b9261265260405190565b91829182611398565b6102b6906125d7565b6102b6906126766118e86118e161089b565b612686600061153d836005610e5a565b7fa465a0fe2610f251b9652863a8d696fba8556b7b552b4682746d1b5297cb75a1906125af565b6102b690612664565b6112bb6102cc916126c5600090565b506005610e5a565b6112bb6102cc916126dc600090565b506126f96126e960405190565b809261140d6020830191826125ee565b612704612617825190565b206005610e5a565b906102cc9161271b600061044e565b821180612731575b61272c90612173565b61276e565b5061272c6127426102cc600861047a565b83109050612723565b9160206102b6929493612766604082019660008301906105f3565b019015159052565b5060039061277f6102cc828461045b565b61278b6005820161047a565b421092836127e5575b508260076127a29201611e37565b3390826127cf7f06c064a68a91e386a0f86fbeea16fd0052a00310bf1fd86927f30d29c9c881c69261044e565b926120c96127dc60405190565b9283928361274b565b60079350906127f86127a292820161047a565b6128056116a5600061044e565b11935090612794565b6102cc90600061270c565b612821611bf1565b906000825260208080808080808080808b01606081520160008152016000815201600081520160005b8152016000815201600081520160008152016000905250565b6102cc612819565b906102cc9161287a600061044e565b821180612890575b61288b90612173565b61299a565b5061288b6128a16102cc600861047a565b83109050612882565b906102b661298760076128bb611bf1565b946128cc6128c88261047a565b8752565b6128e26128db60018301610576565b6020880152565b6128fa6128f16002830161049e565b60408801611bfc565b6129106129096003830161047a565b6060880152565b61292661291f6004830161047a565b6080880152565b61293c6129356005830161047a565b60a0880152565b61295261294b6006830161047a565b60c0880152565b6129696129608383016105a2565b60e08801611c06565b612981612977838301610bd0565b6101008801611bfc565b01610be6565b1515610120840152565b6102cc906128aa565b6102cc916129aa9150600361045b565b612991565b6102cc906129bb612863565b61286b565b6129c861239f565b9060008252602080808080808088016060815201606061284a565b6102cc6129c0565b156129f257565b60405162461bcd60e51b8152602060048201526017602482015276121bdcdc1a5d185b081b9bdd081c9959da5cdd195c9959604a1b6044820152606490fd5b906102b6612ab06005612a4261239f565b94612a55612a4f8261049e565b87611bfc565b612a646128db60018301610576565b612a7a612a7360028301610576565b6040880152565b612a92612a89600383016105a2565b606088016123a9565b612aa16124f660038301610fe4565b6112d96129356004830161047a565b60c0840152565b6102cc90612a31565b612af46102cc91612acf6129e3565b506004612aef612aea6003612ae48585610eee565b01610fe4565b6129eb565b610eee565b612ab7565b6102cc600861047a565b9190820391821161161457565b6102cc612b1d600861047a565b612b27600161044e565b90612b03565b612b3b6118e86118e161089b565b6102b66102b6612bb7565b6102b6612b2d565b612b56612bfe565b6102b6612b6e565b6020810192916102b691906105f3565b612b7a600160026114f7565b33612bb27f62e78cea01bee320cd4e420270b5ea74000d11b0c9f74754ebdbfc544b05a25891612ba960405190565b91829182612b5e565b0390a1565b6102b6612b4e565b15612bc657565b60405162461bcd60e51b815260206004820152601060248201526f14185d5cd8589b194e881c185d5cd95960821b6044820152606490fd5b6102b6612c0c6113b76115e1565b612bbf565b612c1f6118e86118e161089b565b6102b66102b6612c78565b6102b6612c11565b612c3a612cc3565b6102b6612c49600060026114f7565b33612bb27f5db9ee0a495bf2e6ff9c91a7834c1ba4fdd244a5e8aa4e537bd38aeae4b073aa91612ba960405190565b6102b6612c32565b15612c8757565b60405162461bcd60e51b815260206004820152601460248201527314185d5cd8589b194e881b9bdd081c185d5cd95960621b6044820152606490fd5b6102b6612cce6115e1565b612c8056fe296b61e3501a12984349b92cea78f227bf5a96c59c2ac22848e405f244814349a264697066735822122051e8ef963b9a597af2b8aee74bc8732e627a6be28a4d020fa24d298e973a697e64736f6c63430008140033",
  "linkReferences": {},
  "deployedLinkReferences": {}
}